{
  "contractName": "SimpleDAO",
  "abi": [
    {
      "constant": true,
      "inputs": [
        {
          "name": "",
          "type": "address"
        }
      ],
      "name": "credit",
      "outputs": [
        {
          "name": "",
          "type": "uint256"
        }
      ],
      "payable": false,
      "stateMutability": "view",
      "type": "function"
    },
    {
      "constant": false,
      "inputs": [
        {
          "name": "to",
          "type": "address"
        }
      ],
      "name": "donate",
      "outputs": [],
      "payable": true,
      "stateMutability": "payable",
      "type": "function"
    },
    {
      "constant": false,
      "inputs": [
        {
          "name": "amount",
          "type": "uint256"
        }
      ],
      "name": "withdraw",
      "outputs": [],
      "payable": false,
      "stateMutability": "nonpayable",
      "type": "function"
    },
    {
      "constant": true,
      "inputs": [
        {
          "name": "to",
          "type": "address"
        }
      ],
      "name": "queryCredit",
      "outputs": [
        {
          "name": "",
          "type": "uint256"
        }
      ],
      "payable": false,
      "stateMutability": "view",
      "type": "function"
    }
  ],
  "bytecode": "0x608060405234801561001057600080fd5b50610320806100206000396000f300608060405260043610610061576000357c0100000000000000000000000000000000000000000000000000000000900463ffffffff168062362a95146100665780632e1a7d4d1461009c57806359f1286d146100c9578063d5d44d8014610120575b600080fd5b61009a600480360381019080803573ffffffffffffffffffffffffffffffffffffffff169060200190929190505050610177565b005b3480156100a857600080fd5b506100c7600480360381019080803590602001909291905050506101c6565b005b3480156100d557600080fd5b5061010a600480360381019080803573ffffffffffffffffffffffffffffffffffffffff169060200190929190505050610294565b6040518082815260200191505060405180910390f35b34801561012c57600080fd5b50610161600480360381019080803573ffffffffffffffffffffffffffffffffffffffff1690602001909291905050506102dc565b6040518082815260200191505060405180910390f35b346000808373ffffffffffffffffffffffffffffffffffffffff1673ffffffffffffffffffffffffffffffffffffffff1681526020019081526020016000206000828254019250508190555050565b806000803373ffffffffffffffffffffffffffffffffffffffff1673ffffffffffffffffffffffffffffffffffffffff16815260200190815260200160002054101515610291573373ffffffffffffffffffffffffffffffffffffffff168160405160006040518083038185875af192505050151561024457600080fd5b806000803373ffffffffffffffffffffffffffffffffffffffff1673ffffffffffffffffffffffffffffffffffffffff168152602001908152602001600020600082825403925050819055505b50565b60008060008373ffffffffffffffffffffffffffffffffffffffff1673ffffffffffffffffffffffffffffffffffffffff168152602001908152602001600020549050919050565b600060205280600052604060002060009150905054815600a165627a7a72305820995dd360cfe1e03c0dded401ac885f902c03677f72bdcce6d8d845db1f313dca0029",
  "source": "/*\n * @source: http://blockchain.unica.it/projects/ethereum-survey/attacks.html#simpledao\n * @author: Atzei N., Bartoletti M., Cimoli T\n * Modified by Josselin Feist\n */\npragma solidity 0.4.25;\n\ncontract SimpleDAO {\n  mapping (address => uint) public credit;\n\n  function donate(address to) payable public{\n    credit[to] += msg.value;\n  }\n\n  function withdraw(uint amount) public{\n    if (credit[msg.sender]>= amount) {\n      require(msg.sender.call.value(amount)());\n      credit[msg.sender]-=amount;\n    }\n  }\n\n  function queryCredit(address to) view public returns(uint){\n    return credit[to];\n  }\n}\n",
  "sourcePath": "/src/external-vcs/github/consensys/truffle-analyze/test/sample-truffle/contracts/simple_dao.sol",
  "compiler": {
    "name": "solc",
    "version": "0.4.25+commit.59dbf8f1.Emscripten.clang"
  },
  "schemaVersion": "3.0.0-beta.1",
  "updatedAt": "2018-10-19T00:42:58.492Z"
}